{"abi":[{"type":"constructor","inputs":[{"name":"tokenAddress","type":"address","internalType":"address"}],"stateMutability":"nonpayable"},{"type":"function","name":"addExpense","inputs":[{"name":"totalAmount","type":"uint256","internalType":"uint256"},{"name":"participants","type":"address[]","internalType":"address[]"},{"name":"description","type":"string","internalType":"string"}],"outputs":[],"stateMutability":"nonpayable"},{"type":"function","name":"debts","inputs":[{"name":"","type":"address","internalType":"address"},{"name":"","type":"address","internalType":"address"}],"outputs":[{"name":"","type":"uint256","internalType":"uint256"}],"stateMutability":"view"},{"type":"function","name":"expenseCount","inputs":[],"outputs":[{"name":"","type":"uint256","internalType":"uint256"}],"stateMutability":"view"},{"type":"function","name":"expenses","inputs":[{"name":"","type":"uint256","internalType":"uint256"}],"outputs":[{"name":"maker","type":"address","internalType":"address"},{"name":"totalAmount","type":"uint256","internalType":"uint256"},{"name":"description","type":"string","internalType":"string"},{"name":"settled","type":"bool","internalType":"bool"}],"stateMutability":"view"},{"type":"function","name":"token","inputs":[],"outputs":[{"name":"","type":"address","internalType":"contract IERC20"}],"stateMutability":"view"},{"type":"event","name":"ExpenseAdded","inputs":[{"name":"id","type":"uint256","indexed":true,"internalType":"uint256"},{"name":"maker","type":"address","indexed":true,"internalType":"address"},{"name":"totalAmount","type":"uint256","indexed":false,"internalType":"uint256"}],"anonymous":false}],"bytecode":{"object":"0x608060405234801561000f575f5ffd5b506040516110eb3803806110eb833981810160405281019061003191906100d4565b805f5f6101000a81548173ffffffffffffffffffffffffffffffffffffffff021916908373ffffffffffffffffffffffffffffffffffffffff160217905550506100ff565b5f5ffd5b5f73ffffffffffffffffffffffffffffffffffffffff82169050919050565b5f6100a38261007a565b9050919050565b6100b381610099565b81146100bd575f5ffd5b50565b5f815190506100ce816100aa565b92915050565b5f602082840312156100e9576100e8610076565b5b5f6100f6848285016100c0565b91505092915050565b610fdf8061010c5f395ff3fe608060405234801561000f575f5ffd5b5060043610610055575f3560e01c80634ac1c33d1461005957806352e7df5d1461008957806390df37a7146100a7578063af4afe0a146100c3578063fc0c546a146100f6575b5f5ffd5b610073600480360381019061006e9190610652565b610114565b60405161008091906106a8565b60405180910390f35b610091610134565b60405161009e91906106a8565b60405180910390f35b6100c160048036038101906100bc91906108eb565b61013a565b005b6100dd60048036038101906100d89190610973565b610444565b6040516100ed9493929190610a27565b60405180910390f35b6100fe610521565b60405161010b9190610acc565b60405180910390f35b6003602052815f5260405f20602052805f5260405f205f91509150505481565b60015481565b5f831161017c576040517f08c379a000000000000000000000000000000000000000000000000000000000815260040161017390610b2f565b60405180910390fd5b5f8251116101bf576040517f08c379a00000000000000000000000000000000000000000000000000000000081526004016101b690610b97565b60405180910390fd5b5f8251846101cd9190610c0f565b90505f5f90505b83518110156102e0573373ffffffffffffffffffffffffffffffffffffffff1684828151811061020757610206610c3f565b5b602002602001015173ffffffffffffffffffffffffffffffffffffffff16146102d3578160035f86848151811061024157610240610c3f565b5b602002602001015173ffffffffffffffffffffffffffffffffffffffff1673ffffffffffffffffffffffffffffffffffffffff1681526020019081526020015f205f3373ffffffffffffffffffffffffffffffffffffffff1673ffffffffffffffffffffffffffffffffffffffff1681526020019081526020015f205f8282546102cb9190610c6c565b925050819055505b80806001019150506101d4565b5060015f8154809291906102f390610c9f565b91905055506040518060a001604052803373ffffffffffffffffffffffffffffffffffffffff1681526020018581526020018481526020018381526020015f151581525060025f60015481526020019081526020015f205f820151815f015f6101000a81548173ffffffffffffffffffffffffffffffffffffffff021916908373ffffffffffffffffffffffffffffffffffffffff1602179055506020820151816001015560408201518160020190805190602001906103b4929190610545565b5060608201518160030190816103ca9190610eda565b506080820151816004015f6101000a81548160ff0219169083151502179055509050503373ffffffffffffffffffffffffffffffffffffffff166001547fffac25b106ed0b91022758c753d36790f91d9390cf9ad0b3b08e84e7bb7c5b338660405161043691906106a8565b60405180910390a350505050565b6002602052805f5260405f205f91509050805f015f9054906101000a900473ffffffffffffffffffffffffffffffffffffffff169080600101549080600301805461048e90610d13565b80601f01602080910402602001604051908101604052809291908181526020018280546104ba90610d13565b80156105055780601f106104dc57610100808354040283529160200191610505565b820191905f5260205f20905b8154815290600101906020018083116104e857829003601f168201915b505050505090806004015f9054906101000a900460ff16905084565b5f5f9054906101000a900473ffffffffffffffffffffffffffffffffffffffff1681565b828054828255905f5260205f209081019282156105bb579160200282015b828111156105ba578251825f6101000a81548173ffffffffffffffffffffffffffffffffffffffff021916908373ffffffffffffffffffffffffffffffffffffffff16021790555091602001919060010190610563565b5b5090506105c891906105cc565b5090565b5b808211156105e3575f815f9055506001016105cd565b5090565b5f604051905090565b5f5ffd5b5f5ffd5b5f73ffffffffffffffffffffffffffffffffffffffff82169050919050565b5f610621826105f8565b9050919050565b61063181610617565b811461063b575f5ffd5b50565b5f8135905061064c81610628565b92915050565b5f5f60408385031215610668576106676105f0565b5b5f6106758582860161063e565b92505060206106868582860161063e565b9150509250929050565b5f819050919050565b6106a281610690565b82525050565b5f6020820190506106bb5f830184610699565b92915050565b6106ca81610690565b81146106d4575f5ffd5b50565b5f813590506106e5816106c1565b92915050565b5f5ffd5b5f601f19601f8301169050919050565b7f4e487b71000000000000000000000000000000000000000000000000000000005f52604160045260245ffd5b610735826106ef565b810181811067ffffffffffffffff82111715610754576107536106ff565b5b80604052505050565b5f6107666105e7565b9050610772828261072c565b919050565b5f67ffffffffffffffff821115610791576107906106ff565b5b602082029050602081019050919050565b5f5ffd5b5f6107b86107b384610777565b61075d565b905080838252602082019050602084028301858111156107db576107da6107a2565b5b835b8181101561080457806107f0888261063e565b8452602084019350506020810190506107dd565b5050509392505050565b5f82601f830112610822576108216106eb565b5b81356108328482602086016107a6565b91505092915050565b5f5ffd5b5f67ffffffffffffffff821115610859576108586106ff565b5b610862826106ef565b9050602081019050919050565b828183375f83830152505050565b5f61088f61088a8461083f565b61075d565b9050828152602081018484840111156108ab576108aa61083b565b5b6108b684828561086f565b509392505050565b5f82601f8301126108d2576108d16106eb565b5b81356108e284826020860161087d565b91505092915050565b5f5f5f60608486031215610902576109016105f0565b5b5f61090f868287016106d7565b935050602084013567ffffffffffffffff8111156109305761092f6105f4565b5b61093c8682870161080e565b925050604084013567ffffffffffffffff81111561095d5761095c6105f4565b5b610969868287016108be565b9150509250925092565b5f60208284031215610988576109876105f0565b5b5f610995848285016106d7565b91505092915050565b6109a781610617565b82525050565b5f81519050919050565b5f82825260208201905092915050565b8281835e5f83830152505050565b5f6109df826109ad565b6109e981856109b7565b93506109f98185602086016109c7565b610a02816106ef565b840191505092915050565b5f8115159050919050565b610a2181610a0d565b82525050565b5f608082019050610a3a5f83018761099e565b610a476020830186610699565b8181036040830152610a5981856109d5565b9050610a686060830184610a18565b95945050505050565b5f819050919050565b5f610a94610a8f610a8a846105f8565b610a71565b6105f8565b9050919050565b5f610aa582610a7a565b9050919050565b5f610ab682610a9b565b9050919050565b610ac681610aac565b82525050565b5f602082019050610adf5f830184610abd565b92915050565b7f416d6f756e74206d7573742062652067726561746572207468616e20300000005f82015250565b5f610b19601d836109b7565b9150610b2482610ae5565b602082019050919050565b5f6020820190508181035f830152610b4681610b0d565b9050919050565b7f416464206174206c65617374206f6e65207061727469636970616e74000000005f82015250565b5f610b81601c836109b7565b9150610b8c82610b4d565b602082019050919050565b5f6020820190508181035f830152610bae81610b75565b9050919050565b7f4e487b71000000000000000000000000000000000000000000000000000000005f52601260045260245ffd5b7f4e487b71000000000000000000000000000000000000000000000000000000005f52601160045260245ffd5b5f610c1982610690565b9150610c2483610690565b925082610c3457610c33610bb5565b5b828204905092915050565b7f4e487b71000000000000000000000000000000000000000000000000000000005f52603260045260245ffd5b5f610c7682610690565b9150610c8183610690565b9250828201905080821115610c9957610c98610be2565b5b92915050565b5f610ca982610690565b91507fffffffffffffffffffffffffffffffffffffffffffffffffffffffffffffffff8203610cdb57610cda610be2565b5b600182019050919050565b7f4e487b71000000000000000000000000000000000000000000000000000000005f52602260045260245ffd5b5f6002820490506001821680610d2a57607f821691505b602082108103610d3d57610d3c610ce6565b5b50919050565b5f819050815f5260205f209050919050565b5f6020601f8301049050919050565b5f82821b905092915050565b5f60088302610d9f7fffffffffffffffffffffffffffffffffffffffffffffffffffffffffffffffff82610d64565b610da98683610d64565b95508019841693508086168417925050509392505050565b5f610ddb610dd6610dd184610690565b610a71565b610690565b9050919050565b5f819050919050565b610df483610dc1565b610e08610e0082610de2565b848454610d70565b825550505050565b5f5f905090565b610e1f610e10565b610e2a818484610deb565b505050565b5b81811015610e4d57610e425f82610e17565b600181019050610e30565b5050565b601f821115610e9257610e6381610d43565b610e6c84610d55565b81016020851015610e7b578190505b610e8f610e8785610d55565b830182610e2f565b50505b505050565b5f82821c905092915050565b5f610eb25f1984600802610e97565b1980831691505092915050565b5f610eca8383610ea3565b9150826002028217905092915050565b610ee3826109ad565b67ffffffffffffffff811115610efc57610efb6106ff565b5b610f068254610d13565b610f11828285610e51565b5f60209050601f831160018114610f42575f8415610f30578287015190505b610f3a8582610ebf565b865550610fa1565b601f198416610f5086610d43565b5f5b82811015610f7757848901518255600182019150602085019450602081019050610f52565b86831015610f945784890151610f90601f891682610ea3565b8355505b6001600288020188555050505b50505050505056fea2646970667358221220614bdcdeec777c54470658e3ce4f186fc903714b76ae6f4a4c36116dce57710264736f6c634300081e0033","linkReferences":{}},"methodIdentifiers":{"addExpense(uint256,address[],string)":"90df37a7","debts(address,address)":"4ac1c33d","expenseCount()":"52e7df5d","expenses(uint256)":"af4afe0a","token()":"fc0c546a"},"id":16}